{
  "contractName": "RockPaperScissorsContract",
  "abi": [
    {
      "inputs": [
        {
          "internalType": "address",
          "name": "_vrfCoordinator",
          "type": "address"
        },
        {
          "internalType": "address",
          "name": "_link",
          "type": "address"
        }
      ],
      "stateMutability": "payable",
      "type": "constructor",
      "payable": true
    },
    {
      "anonymous": false,
      "inputs": [
        {
          "indexed": false,
          "internalType": "uint256",
          "name": "playerId",
          "type": "uint256"
        },
        {
          "indexed": false,
          "internalType": "address",
          "name": "sender",
          "type": "address"
        },
        {
          "indexed": false,
          "internalType": "uint256",
          "name": "amount",
          "type": "uint256"
        }
      ],
      "name": "BetPlaced",
      "type": "event"
    },
    {
      "anonymous": false,
      "inputs": [
        {
          "indexed": false,
          "internalType": "address",
          "name": "sender",
          "type": "address"
        },
        {
          "indexed": false,
          "internalType": "uint256",
          "name": "amount",
          "type": "uint256"
        }
      ],
      "name": "CheckBalance",
      "type": "event"
    },
    {
      "anonymous": false,
      "inputs": [
        {
          "indexed": true,
          "internalType": "address",
          "name": "sender",
          "type": "address"
        },
        {
          "indexed": true,
          "internalType": "uint256",
          "name": "computerHand",
          "type": "uint256"
        },
        {
          "indexed": false,
          "internalType": "uint256",
          "name": "amountwon",
          "type": "uint256"
        }
      ],
      "name": "Outcome",
      "type": "event"
    },
    {
      "anonymous": false,
      "inputs": [
        {
          "indexed": true,
          "internalType": "address",
          "name": "sender",
          "type": "address"
        },
        {
          "indexed": true,
          "internalType": "string",
          "name": "outcomeStatus",
          "type": "string"
        }
      ],
      "name": "OutcomeStatus",
      "type": "event"
    },
    {
      "anonymous": false,
      "inputs": [
        {
          "indexed": false,
          "internalType": "address",
          "name": "owner",
          "type": "address"
        },
        {
          "indexed": false,
          "internalType": "uint256",
          "name": "message",
          "type": "uint256"
        }
      ],
      "name": "WithdrawnProfits",
      "type": "event"
    },
    {
      "stateMutability": "payable",
      "type": "fallback",
      "payable": true
    },
    {
      "inputs": [],
      "name": "KEY_HASH",
      "outputs": [
        {
          "internalType": "bytes32",
          "name": "",
          "type": "bytes32"
        }
      ],
      "stateMutability": "view",
      "type": "function",
      "constant": true
    },
    {
      "inputs": [],
      "name": "LINK_TOKEN",
      "outputs": [
        {
          "internalType": "address",
          "name": "",
          "type": "address"
        }
      ],
      "stateMutability": "view",
      "type": "function",
      "constant": true
    },
    {
      "inputs": [],
      "name": "VRF_COORDINATOR",
      "outputs": [
        {
          "internalType": "address",
          "name": "",
          "type": "address"
        }
      ],
      "stateMutability": "view",
      "type": "function",
      "constant": true
    },
    {
      "inputs": [
        {
          "internalType": "uint256",
          "name": "",
          "type": "uint256"
        }
      ],
      "name": "bets",
      "outputs": [
        {
          "internalType": "address",
          "name": "player",
          "type": "address"
        },
        {
          "internalType": "uint256",
          "name": "bet",
          "type": "uint256"
        },
        {
          "internalType": "uint8",
          "name": "playerMove",
          "type": "uint8"
        },
        {
          "internalType": "uint256",
          "name": "computerMove",
          "type": "uint256"
        },
        {
          "internalType": "bool",
          "name": "betsettled",
          "type": "bool"
        },
        {
          "internalType": "address",
          "name": "outcome",
          "type": "address"
        },
        {
          "internalType": "uint256",
          "name": "winAmount",
          "type": "uint256"
        }
      ],
      "stateMutability": "view",
      "type": "function",
      "constant": true
    },
    {
      "inputs": [],
      "name": "chainlinkfee",
      "outputs": [
        {
          "internalType": "uint256",
          "name": "",
          "type": "uint256"
        }
      ],
      "stateMutability": "view",
      "type": "function",
      "constant": true
    },
    {
      "inputs": [],
      "name": "owner",
      "outputs": [
        {
          "internalType": "address payable",
          "name": "",
          "type": "address"
        }
      ],
      "stateMutability": "view",
      "type": "function",
      "constant": true
    },
    {
      "inputs": [
        {
          "internalType": "bytes32",
          "name": "",
          "type": "bytes32"
        }
      ],
      "name": "playerGameMap",
      "outputs": [
        {
          "internalType": "uint256",
          "name": "",
          "type": "uint256"
        }
      ],
      "stateMutability": "view",
      "type": "function",
      "constant": true
    },
    {
      "inputs": [
        {
          "internalType": "bytes32",
          "name": "requestId",
          "type": "bytes32"
        },
        {
          "internalType": "uint256",
          "name": "randomness",
          "type": "uint256"
        }
      ],
      "name": "rawFulfillRandomness",
      "outputs": [],
      "stateMutability": "nonpayable",
      "type": "function"
    },
    {
      "inputs": [],
      "name": "recieve",
      "outputs": [],
      "stateMutability": "payable",
      "type": "function",
      "payable": true
    },
    {
      "inputs": [],
      "name": "getBalance",
      "outputs": [
        {
          "internalType": "uint256",
          "name": "",
          "type": "uint256"
        }
      ],
      "stateMutability": "view",
      "type": "function",
      "constant": true
    },
    {
      "inputs": [],
      "name": "getLinkBalance",
      "outputs": [
        {
          "internalType": "uint256",
          "name": "",
          "type": "uint256"
        }
      ],
      "stateMutability": "view",
      "type": "function",
      "constant": true
    },
    {
      "inputs": [],
      "name": "getBets",
      "outputs": [
        {
          "internalType": "uint256",
          "name": "",
          "type": "uint256"
        }
      ],
      "stateMutability": "view",
      "type": "function",
      "constant": true
    },
    {
      "inputs": [
        {
          "internalType": "address",
          "name": "_to",
          "type": "address"
        },
        {
          "internalType": "uint8",
          "name": "_userMove",
          "type": "uint8"
        }
      ],
      "name": "depositBet",
      "outputs": [
        {
          "internalType": "uint256",
          "name": "",
          "type": "uint256"
        }
      ],
      "stateMutability": "payable",
      "type": "function",
      "payable": true
    },
    {
      "inputs": [
        {
          "internalType": "uint256",
          "name": "userProviderSeed",
          "type": "uint256"
        }
      ],
      "name": "getRandomNumber",
      "outputs": [
        {
          "internalType": "bytes32",
          "name": "requestId",
          "type": "bytes32"
        }
      ],
      "stateMutability": "nonpayable",
      "type": "function"
    },
    {
      "inputs": [],
      "name": "withdrawnProfits",
      "outputs": [],
      "stateMutability": "nonpayable",
      "type": "function"
    },
    {
      "inputs": [
        {
          "internalType": "bytes32",
          "name": "requestId",
          "type": "bytes32"
        },
        {
          "internalType": "uint256",
          "name": "randomness",
          "type": "uint256"
        }
      ],
      "name": "gamelogic",
      "outputs": [],
      "stateMutability": "payable",
      "type": "function",
      "payable": true
    }
  ],
  "bytecode": "0x60c0604052655af3107a40006001556040516200256b3803806200256b83398181016040528101906200003391906200012d565b738c7382f9d8f56b33781fe506e897a4f1e2d1725573326c977e6efc84e512bb9c30f76e30c160ed06fb8173ffffffffffffffffffffffffffffffffffffffff1660a08173ffffffffffffffffffffffffffffffffffffffff1660601b815250508073ffffffffffffffffffffffffffffffffffffffff1660808173ffffffffffffffffffffffffffffffffffffffff1660601b81525050505033600360006101000a81548173ffffffffffffffffffffffffffffffffffffffff021916908373ffffffffffffffffffffffffffffffffffffffff1602179055505050620001bc565b6000815190506200012781620001a2565b92915050565b600080604083850312156200014157600080fd5b6000620001518582860162000116565b9250506020620001648582860162000116565b9150509250929050565b60006200017b8262000182565b9050919050565b600073ffffffffffffffffffffffffffffffffffffffff82169050919050565b620001ad816200016e565b8114620001b957600080fd5b50565b60805160601c60a05160601c61236e620001fd60003960008181610d4f0152611540015260008181610493015281816110330152611504015261236e6000f3fe6080604052600436106100f75760003560e01c80638da5cb5b1161008a578063b37217a411610059578063b37217a4146102f6578063c5c45ff014610333578063eedac3a61461034a578063f9f0657514610375576100f8565b80638da5cb5b1461026d57806394985ddd14610298578063a6afd5fd146102c1578063a9e10bf2146102ec576100f8565b8063336f1393116100c6578063336f1393146101be57806350c5f975146101fb57806351dc86a514610226578063539fb23c14610251576100f8565b806305f6a924146100fa57806312065fe01461012557806316c1b7731461015057806322af00fa1461017b576100f8565b5b005b34801561010657600080fd5b5061010f6103a5565b60405161011c9190611dcd565b60405180910390f35b34801561013157600080fd5b5061013a6103bd565b6040516101479190612082565b60405180910390f35b34801561015c57600080fd5b506101656103c5565b6040516101729190612082565b60405180910390f35b34801561018757600080fd5b506101a2600480360381019061019d9190611816565b6103cb565b6040516101b59796959493929190611e6a565b60405180910390f35b3480156101ca57600080fd5b506101e560048036038101906101e091906117b1565b610477565b6040516101f29190612082565b60405180910390f35b34801561020757600080fd5b5061021061048f565b60405161021d9190612082565b60405180910390f35b34801561023257600080fd5b5061023b61053f565b6040516102489190611ed9565b60405180910390f35b61026b600480360381019061026691906117da565b610566565b005b34801561027957600080fd5b50610282610d27565b60405161028f9190611de8565b60405180910390f35b3480156102a457600080fd5b506102bf60048036038101906102ba91906117da565b610d4d565b005b3480156102cd57600080fd5b506102d6610de9565b6040516102e39190612082565b60405180910390f35b6102f4610df6565b005b34801561030257600080fd5b5061031d60048036038101906103189190611816565b610df8565b60405161032a9190611ed9565b60405180910390f35b34801561033f57600080fd5b50610348610e30565b005b34801561035657600080fd5b5061035f611010565b60405161036c9190611dcd565b60405180910390f35b61038f600480360381019061038a919061174c565b611028565b60405161039c9190612082565b60405180910390f35b738c7382f9d8f56b33781fe506e897a4f1e2d1725581565b600047905090565b60015481565b600581815481106103db57600080fd5b90600052602060002090600602016000915090508060000160009054906101000a900473ffffffffffffffffffffffffffffffffffffffff16908060010154908060020160009054906101000a900460ff16908060030154908060040160009054906101000a900460ff16908060040160019054906101000a900473ffffffffffffffffffffffffffffffffffffffff16908060050154905087565b60046020528060005260406000206000915090505481565b60007f000000000000000000000000000000000000000000000000000000000000000073ffffffffffffffffffffffffffffffffffffffff166370a08231306040518263ffffffff1660e01b81526004016104ea9190611dcd565b60206040518083038186803b15801561050257600080fd5b505afa158015610516573d6000803e3d6000fd5b505050506040513d601f19601f8201168201806040525081019061053a919061183f565b905090565b7f6e75b569a01ef56d18cab6a8e71e6600d6ce853834d4a5748b720d06f878b3a460001b81565b6000600460008481526020019081526020016000205490506000600582815481106105ba577f4e487b7100000000000000000000000000000000000000000000000000000000600052603260045260246000fd5b9060005260206000209060060201905060008160000160009054906101000a900473ffffffffffffffffffffffffffffffffffffffff16905060008260010154905060008360020160009054906101000a900460ff16905085846003018190555081471161065d576040517f08c379a000000000000000000000000000000000000000000000000000000000815260040161065490612002565b60405180910390fd5b600080600190506000600290508260ff168460ff1614801561068557508060ff168760030154145b806106a757508060ff168460ff161480156106a657508160ff168760030154145b5b806106c957508160ff168460ff161480156106c857508260ff168760030154145b5b156108b8576000808773ffffffffffffffffffffffffffffffffffffffff16876040516106f590611db8565b60006040518083038185875af1925050503d8060008114610732576040519150601f19603f3d011682016040523d82523d6000602084013e610737565b606091505b50915091508161077c576040517f08c379a000000000000000000000000000000000000000000000000000000000815260040161077390612042565b60405180910390fd5b878960040160016101000a81548173ffffffffffffffffffffffffffffffffffffffff021916908373ffffffffffffffffffffffffffffffffffffffff16021790555088600301548960000160009054906101000a900473ffffffffffffffffffffffffffffffffffffffff1673ffffffffffffffffffffffffffffffffffffffff167f3eda5c472ae55f9e3035bfbb7b08174e0e20d4371c31e4fc49428fc03074de378960405161082e9190612082565b60405180910390a360405161084290611da3565b60405180910390208960000160009054906101000a900473ffffffffffffffffffffffffffffffffffffffff1673ffffffffffffffffffffffffffffffffffffffff167f26364d3534569cda2327e00337cea097e1520a2cdbe346e3e0b12bb92e6e42d860405160405180910390a35050610cf5565b8260ff168460ff161480156108d357508260ff168760030154145b806108f557508060ff168460ff161480156108f457508060ff168760030154145b5b8061091757508160ff168460ff1614801561091657508160ff168760030154145b5b15610b0a576000808773ffffffffffffffffffffffffffffffffffffffff168760405161094390611db8565b60006040518083038185875af1925050503d8060008114610980576040519150601f19603f3d011682016040523d82523d6000602084013e610985565b606091505b5091509150816109ca576040517f08c379a00000000000000000000000000000000000000000000000000000000081526004016109c190612042565b60405180910390fd5b60009650878960040160016101000a81548173ffffffffffffffffffffffffffffffffffffffff021916908373ffffffffffffffffffffffffffffffffffffffff16021790555088600301548960000160009054906101000a900473ffffffffffffffffffffffffffffffffffffffff1673ffffffffffffffffffffffffffffffffffffffff167f3eda5c472ae55f9e3035bfbb7b08174e0e20d4371c31e4fc49428fc03074de3789604051610a809190612082565b60405180910390a3604051610a9490611d79565b60405180910390208960000160009054906101000a900473ffffffffffffffffffffffffffffffffffffffff1673ffffffffffffffffffffffffffffffffffffffff167f26364d3534569cda2327e00337cea097e1520a2cdbe346e3e0b12bb92e6e42d860405160405180910390a35050610cf4565b6000803073ffffffffffffffffffffffffffffffffffffffff1687604051610b3190611db8565b60006040518083038185875af1925050503d8060008114610b6e576040519150601f19603f3d011682016040523d82523d6000602084013e610b73565b606091505b509150915081610bb8576040517f08c379a0000000000000000000000000000000000000000000000000000000008152600401610baf90612042565b60405180910390fd5b60009650308960040160016101000a81548173ffffffffffffffffffffffffffffffffffffffff021916908373ffffffffffffffffffffffffffffffffffffffff16021790555088600301548960000160009054906101000a900473ffffffffffffffffffffffffffffffffffffffff1673ffffffffffffffffffffffffffffffffffffffff167f3eda5c472ae55f9e3035bfbb7b08174e0e20d4371c31e4fc49428fc03074de3789604051610c6e9190612082565b60405180910390a3604051610c8290611d8e565b60405180910390208960000160009054906101000a900473ffffffffffffffffffffffffffffffffffffffff1673ffffffffffffffffffffffffffffffffffffffff167f26364d3534569cda2327e00337cea097e1520a2cdbe346e3e0b12bb92e6e42d860405160405180910390a350505b5b60018760040160006101000a81548160ff02191690831515021790555084876005018190555050505050505050505050565b600360009054906101000a900473ffffffffffffffffffffffffffffffffffffffff1681565b7f000000000000000000000000000000000000000000000000000000000000000073ffffffffffffffffffffffffffffffffffffffff163373ffffffffffffffffffffffffffffffffffffffff1614610ddb576040517f08c379a0000000000000000000000000000000000000000000000000000000008152600401610dd290612022565b60405180910390fd5b610de582826114dd565b5050565b6000600580549050905090565b565b6000610e297f6e75b569a01ef56d18cab6a8e71e6600d6ce853834d4a5748b720d06f878b3a460001b600154611500565b9050919050565b600360009054906101000a900473ffffffffffffffffffffffffffffffffffffffff1673ffffffffffffffffffffffffffffffffffffffff163373ffffffffffffffffffffffffffffffffffffffff1614610ec0576040517f08c379a0000000000000000000000000000000000000000000000000000000008152600401610eb790611f62565b60405180910390fd5b60004711610f03576040517f08c379a0000000000000000000000000000000000000000000000000000000008152600401610efa90611fc2565b60405180910390fd5b600080600360009054906101000a900473ffffffffffffffffffffffffffffffffffffffff1673ffffffffffffffffffffffffffffffffffffffff1647604051610f4c90611db8565b60006040518083038185875af1925050503d8060008114610f89576040519150601f19603f3d011682016040523d82523d6000602084013e610f8e565b606091505b509150915081610fd3576040517f08c379a0000000000000000000000000000000000000000000000000000000008152600401610fca90612042565b60405180910390fd5b7f027c1d1fd99b8bfefcc9a1ab67e35ac208f560c00166f139f0a1e1ea0a939c1e3047604051611004929190611e03565b60405180910390a15050565b73326c977e6efc84e512bb9c30f76e30c160ed06fb81565b6000803490506001547f000000000000000000000000000000000000000000000000000000000000000073ffffffffffffffffffffffffffffffffffffffff166370a08231306040518263ffffffff1660e01b815260040161108a9190611dcd565b60206040518083038186803b1580156110a257600080fd5b505afa1580156110b6573d6000803e3d6000fd5b505050506040513d601f19601f820116820180604052508101906110da919061183f565b1161111a576040517f08c379a000000000000000000000000000000000000000000000000000000000815260040161111190611f82565b60405180910390fd5b80471161115c576040517f08c379a000000000000000000000000000000000000000000000000000000000815260040161115390611fa2565b60405180910390fd5b6000811161119f576040517f08c379a000000000000000000000000000000000000000000000000000000000815260040161119690612062565b60405180910390fd5b60008360ff16101580156111b7575060028360ff1611155b6111f6576040517f08c379a00000000000000000000000000000000000000000000000000000000081526004016111ed90611fe2565b60405180910390fd5b6000803073ffffffffffffffffffffffffffffffffffffffff168360405161121d90611db8565b60006040518083038185875af1925050503d806000811461125a576040519150601f19603f3d011682016040523d82523d6000602084013e61125f565b606091505b5091509150816112a4576040517f08c379a000000000000000000000000000000000000000000000000000000000815260040161129b90612042565b60405180910390fd5b7f298d723426e7f22fbb65ea5f84ec8606ff95165decb6598d73adcd29394b7bdb30476040516112d5929190611e03565b60405180910390a160006112ea6104b4610df8565b905060058054905060046000838152602001908152602001600020819055507f87b9df6fa7123c2e6044c3a3a37b4b0662c188d7a58ef86ee55067c46e4613ad60058054905033866040516113419392919061209d565b60405180910390a160056040518060e001604052808973ffffffffffffffffffffffffffffffffffffffff1681526020018681526020018860ff16815260200160008152602001600015158152602001600073ffffffffffffffffffffffffffffffffffffffff1681526020016000815250908060018154018082558091505060019003906000526020600020906006020160009091909190915060008201518160000160006101000a81548173ffffffffffffffffffffffffffffffffffffffff021916908373ffffffffffffffffffffffffffffffffffffffff1602179055506020820151816001015560408201518160020160006101000a81548160ff021916908360ff1602179055506060820151816003015560808201518160040160006101000a81548160ff02191690831515021790555060a08201518160040160016101000a81548173ffffffffffffffffffffffffffffffffffffffff021916908373ffffffffffffffffffffffffffffffffffffffff16021790555060c08201518160050155505060058054905094505050505092915050565b6002816114ea9190612225565b6002819055506114fc82600254610566565b5050565b60007f000000000000000000000000000000000000000000000000000000000000000073ffffffffffffffffffffffffffffffffffffffff16634000aea07f000000000000000000000000000000000000000000000000000000000000000084866000604051602001611574929190611ef4565b6040516020818303038152906040526040518463ffffffff1660e01b81526004016115a193929190611e2c565b602060405180830381600087803b1580156115bb57600080fd5b505af11580156115cf573d6000803e3d6000fd5b505050506040513d601f19601f820116820180604052508101906115f39190611788565b506000611615846000306000808981526020019081526020016000205461165f565b90506001600080868152602001908152602001600020546116369190612117565b60008086815260200190815260200160002081905550611656848261169b565b91505092915050565b6000848484846040516020016116789493929190611f1d565b6040516020818303038152906040528051906020012060001c9050949350505050565b600082826040516020016116b0929190611d4d565b60405160208183030381529060405280519060200120905092915050565b6000813590506116dd816122c5565b92915050565b6000815190506116f2816122dc565b92915050565b600081359050611707816122f3565b92915050565b60008135905061171c8161230a565b92915050565b6000815190506117318161230a565b92915050565b60008135905061174681612321565b92915050565b6000806040838503121561175f57600080fd5b600061176d858286016116ce565b925050602061177e85828601611737565b9150509250929050565b60006020828403121561179a57600080fd5b60006117a8848285016116e3565b91505092915050565b6000602082840312156117c357600080fd5b60006117d1848285016116f8565b91505092915050565b600080604083850312156117ed57600080fd5b60006117fb858286016116f8565b925050602061180c8582860161170d565b9150509250929050565b60006020828403121561182857600080fd5b60006118368482850161170d565b91505092915050565b60006020828403121561185157600080fd5b600061185f84828501611722565b91505092915050565b6118718161217f565b82525050565b6118808161216d565b82525050565b61188f81612191565b82525050565b61189e8161219d565b82525050565b6118b56118b08261219d565b612211565b82525050565b60006118c6826120d4565b6118d081856120df565b93506118e08185602086016121de565b6118e9816122b4565b840191505092915050565b600061190160308361210c565b91507f546965642120596f752067657420796f7572206d6f6e6579206261636b21205060008301527f6c656173652074727920616761696e21000000000000000000000000000000006020830152603082019050919050565b60006119676025836120fb565b91507f596f7520617265206e6f74207468652067616d65206f776e65722c207069737360008301527f206f66662e0000000000000000000000000000000000000000000000000000006020830152604082019050919050565b60006119cd602b836120fb565b91507f4e6f7420656e6f756768204c494e4b202d2066696c6c20636f6e74726163742060008301527f77697468206661756365740000000000000000000000000000000000000000006020830152604082019050919050565b6000611a33601b8361210c565b91507f596f75206c6f73742120506c656173652074727920616761696e2100000000006000830152601b82019050919050565b6000611a736026836120fb565b91507f436f6e747261637420646f6573206e6f74206861766520737566666963656e7460008301527f2066756e647300000000000000000000000000000000000000000000000000006020830152604082019050919050565b6000611ad96031836120fb565b91507f496e7375666669656e742046756e64732e20506c656173652061637475616c6c60008301527f792077696e20736f6d65206d6f6e6579210000000000000000000000000000006020830152604082019050919050565b6000611b3f6020836120fb565b91507f55736572206d6f76652063616e206f6e6c7920626520302c203120616e6420326000830152602082019050919050565b6000611b7f60248361210c565b91507f596f7520574f4e2120506c656173652074727920796f7572206c75636b20616760008301527f61696e21000000000000000000000000000000000000000000000000000000006020830152602482019050919050565b6000611be5602c836120fb565b91507f556e61626c6520746f20616363657074206265742064756520746f20696e737560008301527f666669656e742066756e647300000000000000000000000000000000000000006020830152604082019050919050565b6000611c4b601f836120fb565b91507f4f6e6c7920565246436f6f7264696e61746f722063616e2066756c66696c6c006000830152602082019050919050565b6000611c8b6000836120f0565b9150600082019050919050565b6000611ca56010836120fb565b91507f5472616e73666572206661696c65642e000000000000000000000000000000006000830152602082019050919050565b6000611ce56019836120fb565b91507f506c6163696e67206120626574206973207265717569726564000000000000006000830152602082019050919050565b611d21816121c7565b82525050565b611d38611d33826121c7565b61221b565b82525050565b611d47816121d1565b82525050565b6000611d5982856118a4565b602082019150611d698284611d27565b6020820191508190509392505050565b6000611d84826118f4565b9150819050919050565b6000611d9982611a26565b9150819050919050565b6000611dae82611b72565b9150819050919050565b6000611dc382611c7e565b9150819050919050565b6000602082019050611de26000830184611877565b92915050565b6000602082019050611dfd6000830184611868565b92915050565b6000604082019050611e186000830185611877565b611e256020830184611d18565b9392505050565b6000606082019050611e416000830186611877565b611e4e6020830185611d18565b8181036040830152611e6081846118bb565b9050949350505050565b600060e082019050611e7f600083018a611877565b611e8c6020830189611d18565b611e996040830188611d3e565b611ea66060830187611d18565b611eb36080830186611886565b611ec060a0830185611877565b611ecd60c0830184611d18565b98975050505050505050565b6000602082019050611eee6000830184611895565b92915050565b6000604082019050611f096000830185611895565b611f166020830184611d18565b9392505050565b6000608082019050611f326000830187611895565b611f3f6020830186611d18565b611f4c6040830185611877565b611f596060830184611d18565b95945050505050565b60006020820190508181036000830152611f7b8161195a565b9050919050565b60006020820190508181036000830152611f9b816119c0565b9050919050565b60006020820190508181036000830152611fbb81611a66565b9050919050565b60006020820190508181036000830152611fdb81611acc565b9050919050565b60006020820190508181036000830152611ffb81611b32565b9050919050565b6000602082019050818103600083015261201b81611bd8565b9050919050565b6000602082019050818103600083015261203b81611c3e565b9050919050565b6000602082019050818103600083015261205b81611c98565b9050919050565b6000602082019050818103600083015261207b81611cd8565b9050919050565b60006020820190506120976000830184611d18565b92915050565b60006060820190506120b26000830186611d18565b6120bf6020830185611877565b6120cc6040830184611d18565b949350505050565b600081519050919050565b600082825260208201905092915050565b600081905092915050565b600082825260208201905092915050565b600081905092915050565b6000612122826121c7565b915061212d836121c7565b9250827fffffffffffffffffffffffffffffffffffffffffffffffffffffffffffffffff0382111561216257612161612256565b5b828201905092915050565b6000612178826121a7565b9050919050565b600061218a826121a7565b9050919050565b60008115159050919050565b6000819050919050565b600073ffffffffffffffffffffffffffffffffffffffff82169050919050565b6000819050919050565b600060ff82169050919050565b60005b838110156121fc5780820151818401526020810190506121e1565b8381111561220b576000848401525b50505050565b6000819050919050565b6000819050919050565b6000612230826121c7565b915061223b836121c7565b92508261224b5761224a612285565b5b828206905092915050565b7f4e487b7100000000000000000000000000000000000000000000000000000000600052601160045260246000fd5b7f4e487b7100000000000000000000000000000000000000000000000000000000600052601260045260246000fd5b6000601f19601f8301169050919050565b6122ce8161216d565b81146122d957600080fd5b50565b6122e581612191565b81146122f057600080fd5b50565b6122fc8161219d565b811461230757600080fd5b50565b612313816121c7565b811461231e57600080fd5b50565b61232a816121d1565b811461233557600080fd5b5056fea264697066735822122027dc2f806d5d94c7271dbfa85a48608bab44599cc024c1bd093ec47adc31969264736f6c63430008000033",
  "immutableReferences": {
    "73": [
      {
        "length": 32,
        "start": 1171
      },
      {
        "length": 32,
        "start": 4147
      },
      {
        "length": 32,
        "start": 5380
      }
    ],
    "75": [
      {
        "length": 32,
        "start": 3407
      },
      {
        "length": 32,
        "start": 5440
      }
    ]
  },
  "source": "    // SPDX-License-Identifier: MIT\n    pragma solidity ^0.8.0;\n\n    import \"@chainlink/contracts/src/v0.8/VRFConsumerBase.sol\";\n\n\n    ///@title Rock Paper Scissor Blockchain Game\n    ///@author Sean B. Smith\n    ///@notice This is contract and game for experimental and entertainment purposes only.\n    contract RockPaperScissorsContract is VRFConsumerBase  {\n        \n        ///@dev Chainlink VRF related parameters for the Rinkeby network\n        address public constant LINK_TOKEN =\n            0x326C977E6efc84E512bB9C30f76E30c160eD06FB;\n        address public constant VRF_COORDINATOR =\n            0x8C7382F9D8f56b33781fE506E897a4F1e2d17255;\n        bytes32 public constant KEY_HASH =\n            0x6e75b569a01ef56d18cab6a8e71e6600d6ce853834d4a5748b720d06f878b3a4;\n        uint256 public chainlinkfee = 0.0001 * 10**18;\n        uint256 private randomResult;\n    \n        /// @notice A variable that holds the owner of the contract\n        address payable public owner;\n\n        /**  @notice Sets the VRFConsumerbase funcation and owner variable\n            @param  _vrfCoordinator VRF Coordinators smart contract address on Rinkeby\n            @param _link Smart contract address to the link token on Rinkeby\n        */ \n        constructor(address _vrfCoordinator, address _link)\n            public\n            payable\n            VRFConsumerBase(VRF_COORDINATOR, LINK_TOKEN)\n        {\n                owner = payable(msg.sender);\n        }\n\n        /** @notice Emits that a bet has been placed\n            @param playerId the player id\n            @param sender the address of the player that is playing the bet\n            @param amount the bet placed   \n        */ \n        event BetPlaced(uint256 playerId, address sender, uint256 amount);\n        \n        /** @notice Emits the the current contact balance \n            @param sender the address of the contract\n            @param amount the currnet contract balance\n        */\n        event CheckBalance(address sender, uint256 amount);\n\n        /** @notice Emit address and address balace for contract withdraws\n            @param owner contract address\n            @param message the contract balance\n        */\n        event WithdrawnProfits (address owner, uint256 message);\n        \n        /** @notice Emit the game outcome \n            @param sender address of the player\n            @param computerHand the computer's hand\n            @param amountwon detail the amount won or loss by the user\n        */\n        event Outcome(address indexed sender, uint256 indexed computerHand, uint256 amountwon);\n\n        /** @notice Emit the status of the game outcome \n            @param sender address of the player\n            @param outcomeStatus the outcome message of completing a game\n        */\n        event OutcomeStatus(address indexed sender, string indexed outcomeStatus);\n\n        ///Requires Owner to execute funcation\n        modifier onlyOwner {\n        require(msg.sender == owner, \n        \"You are not the game owner, piss off.\");\n        _;\n    }\n\n        /// @notice Holds the player game mapping\n        mapping(bytes32 => uint) public playerGameMap;\n\n        struct Playergame {\n            //the player that is beting they can bet the computer\n            address player;\n            //the players bet\n            uint256 bet;\n            // the players move\n            uint8 playerMove;\n            // the computers move\n            uint256 computerMove;\n            // status on if the bet has settled\n            bool betsettled;\n            // Outcome of bet.\n            address outcome;\n            // Win amount.\n            uint winAmount;\n        }\n        ///This is the players game\n        Playergame[] public bets; \n\n        function recieve() external payable {}\n        fallback() external payable {}\n\n\n        /// @notice Get the contract balance\n        /// @return The contract balance\n        function getBalance() public view returns (uint256) {\n            return address(this).balance;\n        }\n\n        /// @notice Get the Link balance on the contract\n        /// @return The contract Link balance\n        function getLinkBalance() public view returns (uint256) {\n            return  LINK.balanceOf(address(this));\n        }\n        /// @notice Get # of bets made using this contract\n        /// @return the # of bets\n        function getBets() public view returns (uint256) {\n            return bets.length;\n        }\n        \n        /** \n            @notice locks in the bet on the smart contract and start the game\n            @param _to address of player of the game\n            @param _userMove the user move (0-Rock, 1-Paper, 2-Scissors)\n            @return the bet id \n        */\n        function depositBet(address _to, uint8 _userMove) public payable returns (uint256) {\n\n            uint _amount = msg.value;\n\n            require(\n                LINK.balanceOf(address(this)) > chainlinkfee,\n                \"Not enough LINK - fill contract with faucet\"\n            );\n\n            require(\n                address(this).balance > _amount,\n                \"Contract does not have sufficent funds\"\n            );\n\n            require(\n                _amount > 0,\n                \"Placing a bet is required\"\n            );\n\n            require(_userMove >= 0 && _userMove <= 2,\n                \"User move can only be 0, 1 and 2\"\n            );\n            // add bet to smart contract\n            (bool success, bytes memory transactionBytes) = address(this).call{\n                value: _amount\n            }(\"\");\n            require(success, \"Transfer failed.\");\n\n            emit CheckBalance(address(this), address(this).balance);\n\n            //initialize the random number\n            bytes32 requestId = getRandomNumber(1204);\n\n            //Map requestId to players game ID.\n            playerGameMap[requestId] = bets.length;\n\n            emit BetPlaced(bets.length, msg.sender, _amount);\n\n            //push to player game map\n            bets.push(Playergame(\n                {\n            //the player that is beting they can bet the computer\n            player: _to,\n            //the players bet\n            bet: _amount,\n            // the players move\n            playerMove: _userMove,\n            // the computers move\n            computerMove: 0,\n            // status on if the bet has settled\n            betsettled: false,\n            // Outcome of bet.\n            outcome: 0x0000000000000000000000000000000000000000, \n            // Win amount.\n            winAmount: 0 \n                }\n            ));\n    \n            return bets.length;\n\n        }\n\n        /// @notice requests a random number from chainlink\n        /// @dev inherited method from VRFCustomerbase contract\n        /// @param userProviderSeed a random number that will assist in generating a random number\n        /// @return requestId the id that is returned when I request a random number\n        function getRandomNumber(uint256 userProviderSeed)\n            public\n            returns (bytes32 requestId)\n        {\n            return requestRandomness(KEY_HASH, chainlinkfee);\n        }\n\n        /// @notice Gets the random number\n        /// @dev inherited method from VRFCustomerbase and will be called by that contract\n        /// @param requestId associated with the random request\n        /// @param randomness the randmon number\n        function fulfillRandomness(bytes32 requestId, uint256 randomness)\n            internal\n            override\n        {\n            //make sure that result to get random number range: 0 - 2\n            randomResult = (randomness % 2);\n            \n            gamelogic(requestId, randomResult);\n        }\n\n        /// @notice Transfers entire contract balance contact owner\n        function withdrawnProfits() public onlyOwner {\n\n        require(address(this).balance > 0,\n            \"Insuffient Funds. Please actually win some money!\"\n            );\n        \n        (bool success, bytes memory transactionBytes) = owner.call{\n                    value: address(this).balance\n                }(\"\");\n                require(success, \"Transfer failed.\");\n\n                emit WithdrawnProfits(\n                    address(this),\n                    address(this).balance\n                );    \n        }\n\n        /** @notice Explain to an end user what this does   \n            @dev Explain to a developer any extra details\n            @param requestId the requestId used to look up the player game so I can get the player move \n            @param randomness a parameter just like in doxygen (must be followed by parameter name)\n        */\n        function gamelogic(bytes32 requestId, uint256 randomness) public payable {\n\n            //get the game and play id(bets.length)\n            uint256 playerId = playerGameMap[requestId];\n\n            Playergame storage pg = bets[playerId];\n        \n            //get the user and computer info\n            address _to = pg.player;\n            uint256 _amount = pg.bet;\n            uint8 userMove = pg.playerMove;\n            pg.computerMove = randomness;\n\n            require(\n                address(this).balance > _amount,\n                \"Unable to accept bet due to insuffient funds\"\n            );\n\n            uint8 rock = 0;\n            uint8 paper = 1;\n            uint8 scissors = 2; \n\n            if (\n                (userMove == rock && pg.computerMove == scissors) ||\n                (userMove == scissors && pg.computerMove == paper) ||\n                (userMove == paper && pg.computerMove == rock)\n            ) {\n                (bool success, bytes memory transactionBytes) = _to.call{\n                    value: _amount\n                }(\"\");\n                require(success, \"Transfer failed.\");\n\n                pg.outcome = _to;\n\n                emit Outcome(pg.player, pg.computerMove, _amount);\n                emit OutcomeStatus(pg.player, \"You WON! Please try your luck again!\");\n\n            } else if (\n                (userMove == rock && pg.computerMove == rock) ||\n                (userMove == scissors && pg.computerMove == scissors) ||\n                (userMove == paper && pg.computerMove == paper)\n            ) {\n                (bool success, bytes memory transactionBytes) = _to.call{\n                    value: _amount\n                }(\"\");\n                require(success, \"Transfer failed.\");\n\n                _amount = 0;\n                pg.outcome = _to;\n\n                emit Outcome(pg.player, pg.computerMove, _amount);\n                emit OutcomeStatus(pg.player, \"Tied! You get your money back! Please try again!\");\n\n\n            } else {\n                (bool success, bytes memory transactionBytes) = address(this).call{\n                    value: _amount\n                }(\"\");\n                require(success, \"Transfer failed.\");\n\n                _amount = 0;\n\n                pg.outcome = address(this);\n                \n                emit Outcome(pg.player, pg.computerMove, _amount);\n                emit OutcomeStatus(pg.player, \"You lost! Please try again!\");\n            }\n            pg.betsettled =  true;\n            pg.winAmount = _amount;\n    \n        }\n    }",
  "sourcePath": "/home/seanbrettsmith/blockchain-game/contracts/RockPaperScissorsGame.sol",
  "compiler": {
    "name": "solc",
    "version": "0.8.0+commit.c7dfd78e.Emscripten.clang"
  },
  "schemaVersion": "3.4.3",
  "updatedAt": "2022-01-16T04:47:46.977Z",
  "networkType": "ethereum",
  "devdoc": {
    "author": "Sean B. Smith",
    "events": {
      "BetPlaced(uint256,address,uint256)": {
        "params": {
          "amount": "the bet placed   ",
          "playerId": "the player id",
          "sender": "the address of the player that is playing the bet"
        }
      },
      "CheckBalance(address,uint256)": {
        "params": {
          "amount": "the currnet contract balance",
          "sender": "the address of the contract"
        }
      },
      "Outcome(address,uint256,uint256)": {
        "params": {
          "amountwon": "detail the amount won or loss by the user",
          "computerHand": "the computer's hand",
          "sender": "address of the player"
        }
      },
      "OutcomeStatus(address,string)": {
        "params": {
          "outcomeStatus": "the outcome message of completing a game",
          "sender": "address of the player"
        }
      },
      "WithdrawnProfits(address,uint256)": {
        "params": {
          "message": "the contract balance",
          "owner": "contract address"
        }
      }
    },
    "kind": "dev",
    "methods": {
      "constructor": {
        "params": {
          "_link": "Smart contract address to the link token on Rinkeby",
          "_vrfCoordinator": "VRF Coordinators smart contract address on Rinkeby"
        }
      },
      "depositBet(address,uint8)": {
        "params": {
          "_to": "address of player of the game",
          "_userMove": "the user move (0-Rock, 1-Paper, 2-Scissors)"
        },
        "returns": {
          "_0": "the bet id "
        }
      },
      "gamelogic(bytes32,uint256)": {
        "details": "Explain to a developer any extra details",
        "params": {
          "randomness": "a parameter just like in doxygen (must be followed by parameter name)",
          "requestId": "the requestId used to look up the player game so I can get the player move "
        }
      },
      "getBalance()": {
        "returns": {
          "_0": "The contract balance"
        }
      },
      "getBets()": {
        "returns": {
          "_0": "the # of bets"
        }
      },
      "getLinkBalance()": {
        "returns": {
          "_0": "The contract Link balance"
        }
      },
      "getRandomNumber(uint256)": {
        "details": "inherited method from VRFCustomerbase contract",
        "params": {
          "userProviderSeed": "a random number that will assist in generating a random number"
        },
        "returns": {
          "requestId": "the id that is returned when I request a random number"
        }
      }
    },
    "stateVariables": {
      "LINK_TOKEN": {
        "details": "Chainlink VRF related parameters for the Rinkeby network"
      }
    },
    "title": "Rock Paper Scissor Blockchain Game",
    "version": 1
  },
  "userdoc": {
    "events": {
      "BetPlaced(uint256,address,uint256)": {
        "notice": "Emits that a bet has been placed"
      },
      "CheckBalance(address,uint256)": {
        "notice": "Emits the the current contact balance "
      },
      "Outcome(address,uint256,uint256)": {
        "notice": "Emit the game outcome "
      },
      "OutcomeStatus(address,string)": {
        "notice": "Emit the status of the game outcome "
      },
      "WithdrawnProfits(address,uint256)": {
        "notice": "Emit address and address balace for contract withdraws"
      }
    },
    "kind": "user",
    "methods": {
      "bets(uint256)": {
        "notice": "This is the players game"
      },
      "constructor": {
        "notice": "Sets the VRFConsumerbase funcation and owner variable"
      },
      "depositBet(address,uint8)": {
        "notice": "locks in the bet on the smart contract and start the game"
      },
      "gamelogic(bytes32,uint256)": {
        "notice": "Explain to an end user what this does   "
      },
      "getBalance()": {
        "notice": "Get the contract balance"
      },
      "getBets()": {
        "notice": "Get # of bets made using this contract"
      },
      "getLinkBalance()": {
        "notice": "Get the Link balance on the contract"
      },
      "getRandomNumber(uint256)": {
        "notice": "requests a random number from chainlink"
      },
      "owner()": {
        "notice": "A variable that holds the owner of the contract"
      },
      "playerGameMap(bytes32)": {
        "notice": "Holds the player game mapping"
      },
      "withdrawnProfits()": {
        "notice": "Transfers entire contract balance contact owner"
      }
    },
    "notice": "This is contract and game for experimental and entertainment purposes only.",
    "version": 1
  }
}